:020000040000FA
:100000000000B02000010001C21903178318C119B4
:100010000A118A18C0190411833AA619833E0B30BD
:1000200014200B3C8B3D0B3F833E0B3165200B3D79
:10003000A0048119833E3B11050D0335BB18833E97
:10004000B8133811640D0335B818833E3B112A08E4
:10005000833EA719000403340108A8192711833E21
:100060008419833F833E2834833B833E0011833EC3
:10007000A919833E381B03344020833E05384220B3
:10008000833E053C833EB9133911640D0335B9181D
:10009000833E3B112F08833EA71900040334010857
:1000A000A8192711833E8419833F833E2834833B5C
:1000B000833E0011833EA919833E391B033463201C
:1000C000833E06386520833E063C833E8C30A42068
:1000D0008C3C833AA13B833EBC13FA043C1B0330A7
:1000E0007C20BC18833EBD13833A21307A20833AAA
:1000F000A4137C20833AA418833EBA133A11C40D8A
:100100000335BA18AA043A1B03348A201104833E2B
:10011000AE19A420AC04833E3A1B033493201F0481
:10012000833EAE19A420C304833E3A1B03349C20B3
:100130002504833EAE19A420C404833E3A1B033435
:10014000A4201504833EAE19833A2611833E8419F8
:1001500040118A19831841178319C21742170100E9
:100160004D04CE190204CF198004C429833E000037
:10017000C1194F11C0194F04C2190204C319833E9B
:1001800000004011C4194111C519FF04C01E0330FD
:10019000C11A4411451D033532210404421EC419FD
:1001A000C518C5144311C51E4411CE194511CF19E8
:1001B0008004C429833E0000C7194F11C61942119B
:1001C000CE194311CF198004C429833E0000C919F8
:1001D000C5194F11C819C4190204421EC419C51803
:1001E000C5144311C51E4411CE194511CF19800401
:1001F000C429833E0000C519CB194F11C419CA196F
:10020000833E00004611CA194711CB19FF04C61ED0
:100210000330C71A4A114B1D03352B214811CE1943
:100220004911CF198004E529833E0000CA19441101
:10023000833E8419833F833E00004534833B4A114B
:10024000833E8019833E0000C8130335C913C413CD
:100250000335C51300210604833E0000C21E03348B
:10026000C313BF20D4220200833EB618B718833EC2
:10027000B418B5185004833A9F1987181504833EA3
:100280009F19833EA31823042F2B833E9F382304FA
:100290002F2B833E9F3449211E11833EB619B71878
:1002A0003717F00E833EA219833E3617833EA419FA
:1002B0000F0EA21DA41F833A1E170F0E833EA61910
:1002C000241D833EB619833E2211833EB719833E17
:1002D0003411833E361E833EB419833E37110334F6
:1002E000371303357521833EB51E833EB618B71804
:1002F000833EA3131004231B03304321833E341792
:100300000F0EB4193517B519F00EB41DB51F833E85
:100310009F1802000004833E3B1D0335A221833A4F
:10032000A318833A21339921833E063B833A21382F
:10033000872A7804833E3D1B0330A221833E063B7F
:10034000833EBB180004833A201D0335C321A01847
:10035000833EBB133B11050D0335BB18833EBC1810
:10036000833EBD18833E3B11010D0331BC21833A0E
:100370002137BC21833E063F0004833E3B1D0331F1
:10038000C321833E063B0200000D0335CC21800DC6
:100390000335D621CF1800014E118419833F4F3405
:1003A000833B0011CF1984130011020000000000EC
:1003B000F329CD19CE16CF1ACF1300000000F32970
:1003C000CC194D11CF194C110200000D0335EC2151
:1003D000800D0335F32100014E118419833F4F3402
:1003E000833B001102004F118A194E11821902003D
:1003F000833E86312022833AA318833A213408228F
:100400002138833EBB18833E063B833AA13F213F00
:1004100034290804833E351B033110225D04341B4C
:1004200003301422833AA13B833AA1331B22872A4B
:10043000833A21382222833E053E833A213C222200
:10044000833A213C0200833AA3133304231B033075
:100450004C22A318833E063B053A053C063C833AF2
:100460000C3F833E1F3C9F3C833A8C180E3E833EDC
:100470008B3F8B3E8B390B3F9439943A0B3E0000F7
:1004800003000000833E8B3B943D943E8B3A8B3DB2
:10049000833A0E3A40048C19020005010001020162
:1004A0000001A301000101010001390103012A013A
:1004B0000001050100013E0103012F0100010501BA
:1004C000000103010001A401000101010001430139
:1004D0000301A501000101010001833E863586224A
:1004E0000004833E3B1D03358622833AA31834293A
:1004F000833A213786220604833E351B033182224C
:100500000004341B03348622833A213B0200010499
:10051000833A241C833EA019201503349122833E84
:10052000053E03309522833E053A0904833A241B95
:100530000330A022833A213C833AA418833EBB189F
:100540000200833EBE13833E8632B1223204833ED4
:100550003E1B0330AE220104833AA019833EBE182D
:10056000B322833AA318C804833E3E1B0330BA2249
:10057000C804BE190200EE04833A8519BE04861928
:100580001004833E851940048619833A9D18FF04A0
:100590009319DF04833E9319280494193D049F198D
:1005A0003204833A9F190200BB2A6404CF19000465
:1005B000042BED2A1B2B833A213F833E0638053C52
:1005C0008B3B833AA133E122A13F0400A12A8A296F
:1005D0006D2AF829232AE12202002804833E8B1980
:1005E0008004833A901988048119D0048E19833EBF
:1005F0000B3B8B3A0204833A8C193404833E9219E4
:100600007C04833A92190200833EA3194F11A21968
:10061000833E2211A4192311A519FF04A21E033041
:10062000A31A2411251D03351A2378042F2B7D04CA
:100630002F2B08230200833AA118833AA218833A89
:10064000A318833AA018833EBE18833EB81832041C
:10065000833EB919833EBA18833EBB180200833E1D
:10066000A019833E201AA119A019211103313123A9
:1006700002000001000110011F0110010001000132
:0806800010011F01250100011A
:00000001FF
